:020000040800F2
:10000000FCB60120611F0008E9260008ED26000863
:10001000092700080D27000811270008000000002C
:10002000000000000000000000000000152700088C
:1000300019270008000000001D270008C1710008F2
:1000400005200008052000080520000805200008FC
:1000500005200008052000080520000821270008C9
:100060000520000805200008052000088D0B000869
:1000700005200008052000080520000805200008CC
:10008000ADE600080520000805200008052000084E
:1000900005200008052000080520000805200008AC
:1000A000052000080520000805200008052000089C
:1000B0000520000805200008292700080520000861
:1000C000052000080520000805200008052000087C
:1000D000052000080520000851E60008052000085A
:1000E000052000080520000805200008052000085C
:1000F0000520000805200008052000083D0B000829
:10010000052000080520000805200008DD0B000878
:10011000052000080520000805200008052000082B
:10012000052000080520000805200008052000081B
:10013000052000080520000805200008052000080B
:1001400005200008052000080520000805200008FB
:1001500005200008052000080520000805200008EB
:1001600005200008052000080520000805200008DB
:1001700005200008052000080520000805200008CB
:1001800005200008052000082DE9F04FC36983B061
:100190000022044601929B46002B64D0D0F82C909C
:1001A000B9F1000F7FD0D0F818A06569284605F195
:1001B000400705F51056703606F030FD38460CF055
:1001C000DBFD304605F04CFF606806F58058A863FB
:1001D00008F10408E369A0692946984711283AD034
:1001E00020284DD0102842D0216A81B138462946B6
:1001F0000CF022FE8346013048D0226AA0693946BD
:100200009047112827D02028EED010282FD038462C
:1002100029460CF0BFFF834601304BD000200190EF
:10022000636A4BB1A06929463A469847112812D013
:100230002028D9D010281AD03046394606F002FBC3
:10024000A36A002BD0D0A0693946424698471028AF
:100250000DD01128C8D14FF0FF3B38460CF0E2FD1D
:10026000284606F0F5FC584603B0BDE8F08F4FF085
:10027000000B38460CF0D6FD284606F0E9FCF2E704
:10028000AB8F012BA6D04FF0FF3BE6E7AB8F13F40B
:100290007F4FF6D0504629463A46C8471028E6D048
:1002A0001128A1D1E5E740F2D1290DF1040AC0F6E9
:1002B00000097AE7AB8F13F47F4FE2D0504629460E
:1002C0003A46C8471128D4D020288BD1A8E700BFD0
:1002D00008B58B8F40F201218B4201D0002008BD70
:1002E000016819B901220260202008BD10460CF0F7
:1002F00097FF202008BD00BF30B40362029B8161DC
:100300000021416081604161C2614362039A0499A6
:10031000059B82624FF0FF34FF250570C4600461C5
:10032000C162036330BC70470020704770B504465B
:100330000D46017019B14FF0FF36304670BD45F6DD
:100340007C000DF015FA60610028F4D02046FFF71C
:100350001BFF064660690DF045FA6561304670BDC9
:10036000F8B540F20005C2F2000540F2000428682A
:10037000C2F2000406F06CFE0028F6D140F2AC0692
:1003800040F26005C2F20006C2F2000594E80300E4
:1003900006F084FE40F2F00CC2F2000C33682A68CA
:1003A0002068CCF8083061464FF6FF77BA4294BF18
:1003B000CCF81020CCF8107006F0F4FD2068012174
:1003C00006F03CFE2A6831682068BA4238BF1746FA
:1003D00001EB4703D71B012133602F60BDE8F840D4
:1003E00006F02CBE70B5054640F200044FF4A8405C
:1003F0000E46C4F2000094210022C2F200040CF068
:100400009DFB4FF48053A3604FF4A8408221C4F2B7
:100410000000C0F207010CF0AFFB40B9A068421E1B
:10042000A2600028F0D1BDE8704004F03BB94FF461
:10043000A8402946C4F200000CF098FB4FF480510C
:10044000A1604FF4A8408021C4F20000C0F207016F
:100450000CF092FB28B9A368581EA060002BF0D1C5
:10046000E1E74FF4A840C4F2000031460CF07EFBF7
:100470004FF49612A2604FF4A8400421C4F2000089
:10048000C1F200010CF088FB38B9A1684B1EA360D3
:100490000029F0D104F006F9EDE74FF4A840C4F2CA
:1004A000000001210CF03CFB4FF49610A0604FF4CB
:1004B000A840C4F200004FF400310CF06DFB58B1BD
:1004C000A1684A1EA2600029F1D104F0EBF80446AD
:1004D000301B18BF012070BD4FF4A840C4F20000CB
:1004E00001210CF00FFB4FF48053A3604FF4A840A0
:1004F0000121C4F20000C0F203010CF03DFB28B959
:10050000A068411EA1600028F0D1DEE74FF4A840AA
:100510000022C4F2000094210CF010FB4FF4805232
:10052000A2604FF4A8408221C4F20000C0F207018B
:100530000CF022FB28B9A368581EA060002BF0D154
:10054000C3E74FF4A8402946C4F200000CF00EFBAC
:100550004FF48051A1604FF4A8400421C4F2000080
:10056000C1F200010CF018FB28B9A3685A1EA26062
:10057000002BF0D1A9E74FF4A840C4F200000121FC
:100580000CF0C0FA4FF48050A0604FF4A840012155
:10059000C4F20000C0F203010CF0EEFA28B9A16821
:1005A0004B1EA3600029F0D18FE74FF4A840C4F29E
:1005B0000000942101224FF480550CF0BFFAA56091
:1005C00005E0A068421EA26000283FF47EAF4FF411
:1005D000A845C4F2000502212846C1F200010CF032
:1005E000DBFA0028EDD0284600210CF0B1FA0121F9
:1005F00028462B8B0CF094FA4FF48051A1604FF4F5
:10060000A8404021C4F20000C1F200010CF0C4FA7D
:1006100028B9A368581EA060002BF0D155E74FF40D
:10062000A840C4F200000CF0A3FA4FF4A8424FF423
:1006300080510346A160C4F20002B2F800C05FEA34
:100640008C5105D5A168481EA0600029F5D13CE772
:100650004FF4A8400121C4F200001C460CF078FAC7
:100660004FF4A8404FF48061C4F20000C1F20001D1
:100670000CF0AEFA2CE700BF40F20003C2F2000318
:100680002DE9F001D860DA68012A30D0022802D0C2
:10069000BDE8F001704740F2600247F20C47C2F239
:1006A0000002C4F2000746F2100C20261025012497
:1006B000082004215F610027C4F2020CC1F2000689
:1006C000C1F20005C1F28004C1F20000C1F2800154
:1006D0004FF4001857600B22C3F81080C3F800C015
:1006E0009A615E60DD611C6258629962D0E740F2F7
:1006F000600C46F2B80243F60C41C2F2000CC4F2A0
:100700000202C4F2000100201A6059612F224FF04A
:100710002051CCF804004FF010504FF400149A61AF
:100720005960D8614FF001524FF008514FF004501A
:100730001C611A6259629862AAE700BF30B540F2A4
:100740000004C2F2000485B0A369002503A88DF857
:100750000C308DF80D508DF80E508DF80F500CF0B8
:10076000D5FD2946206806F069FC206806F024FBC8
:100770004FF44060C4F2020010212A4606F030FA1D
:1007800044F6FE73063BFDD14FF44060C4F2020014
:100790001021012206F024FA4FF49610A0604FF4C5
:1007A000A840C4F200004FF400310CF0F5F9002825
:1007B0005ED0A1684A1EA2600029F0D103F072FF4A
:1007C0004FF4006000244FF4A05201A9C4F20200CB
:1007D00001928DF808408DF809408DF80A408DF897
:1007E0000B4006F07FF82046102301A9C4F2020056
:1007F000019306F077F8204604212246C4F2020055
:1008000006F0F4F94FF400600A212246C4F2020017
:1008100006F0ECF94FF4006022460C21C4F202000D
:1008200006F0E4F94FF40060802201A9C4F202004E
:10083000019206F057F84FF4006006220721C4F237
:10084000020006F0D3F94FF470502146C4F20000C4
:100850000CF068F84FF47050C4F200000BF0ACFFDD
:100860004FF40040214601F057FD204605B030BD51
:100870004FF4A840C4F2000001210CF043F94FF4FA
:100880008053A3604FF4A8400121C4F20000C0F2DD
:1008900003010CF071F928B9A068411EA16000287D
:1008A000F0D18BE702200121FFF79CFD88E700BF14
:1008B0002DE9F84340F20004C2F200044E08D4F8D7
:1008C0000C80E662B6F5003F34BF4FEA910C4FF65C
:1008D000FF7C40F20005B8F1010F0746C2F20005A7
:1008E00045D040F2B00140F2A80240F2F00340F2DD
:1008F0002C1EC2F20003C2F20001C2F20002C2F2D8
:10090000000E4FEA4C084FF0000928680F60AEF85F
:1009100000901946A2F800809F60C3F810C006F04E
:1009200041FB2868012106F089FB4FF47050C4F2A6
:100930000000B0F81CC05FEA4C5302D401210BF058
:10094000F1FFE06A40F2600240F2AC034FF6FF7143
:10095000884238BF0146C2F20002C2F20003761A92
:1009600007EB410716601F600020BDE8F88340F2E6
:10097000F003C2F200034FEA4C0228689F60194658
:100980001A6106F00FFB2868414606F057FBCCE7DA
:1009900070B540F20004C2F200044FF4961305460D
:1009A000A3604FF4A840C4F200004FF400310CF0F3
:1009B000F3F800285ED0A068421EA2600028F0D1A3
:1009C00003F070FE4FF49612022DA2601FD04FF478
:1009D000A840C4F200004FF400310CF0DDF800280C
:1009E00063D0A568691EA160002DF0D103F05AFE06
:1009F000054640F6FF72053AFDD14FF44060C4F25F
:100A00000200102106F0ECF8ADB1012070BD4FF4EA
:100A1000A840C4F200004FF400310CF0BDF80028EB
:100A200060D0A568691EA160002DF0D103F03AFEE8
:100A30000546002DE9D12068294606F0FFFAE6694F
:100A40006168226A636A206831430A4342EA03010B
:100A500006F024FB4FF47050C4F2000029460BF05E
:100A600061FF40F2600CC2F2000CE16A2846CCF84B
:100A7000001070BD4FF4A8400121C4F200000CF03A
:100A800041F84FF48051A1604FF4A8400121C4F215
:100A90000000C0F203010CF06FF800283CD1A368FD
:100AA000581EA060002BEFD18AE74FF4A840C4F293
:100AB000000001210CF026F84FF48053A3604FF49E
:100AC000A8400121C4F20000C0F203010CF054F868
:100AD00038BBA068421EA2600028F0D103F0E2FDFE
:100AE000054686E74FF4A840C4F2000001210CF04F
:100AF00009F84FF48053A3604FF4A8400121C4F2D9
:100B00000000C0F203010CF037F880B9A068421E63
:100B1000A2600028F0D189E70420FF21FFF762FCE2
:100B200050E702209F21FFF75DFC054661E70220A8
:100B30009F21FFF757FC054666E700BF38B540F236
:100B40000004C2F2000494E8030006F085FA48B1FC
:100B500040F26003C2F200031D6825B1BDE83840D1
:100B6000FFF7FEBB38BD2068294606F067FA94E817
:100B7000030006F093FA40F2AC00C2F200002946EE
:100B80000068BDE8384003F067BD00BF38B540F2EB
:100B90000004C2F2000494E8030006F05DFA48B1D4
:100BA00040F26003C2F200031D6825B1BDE8384081
:100BB000FFF7D6BB38BD2068294606F03FFA94E817
:100BC000030006F06BFA40F2AC00C2F200002946C6
:100BD0000068BDE8384003F03FBD00BF4FF47050DF
:100BE00008B5C4F2000002210BF0C8FE38B340F291
:100BF0000003C2F2000340F2A801DA68022A40F2C0
:100C00002C12C2F20002C2F200011088098824D01E
:100C1000814215D3D968013080B240F2B003022975
:100C20001080C2F200032FD01A6840F2600E1188C3
:100C3000C2F2000E901C1860AEF80A1005E008BD64
:100C400040F26003C2F2000359894FF47050C4F2BD
:100C50000000BDE808400BF073BE814223D3DB687F
:100C6000013080B2022B40F2B0031080C2F20003C8
:100C70002AD01A6840F2600E1188C2F2000E901C51
:100C80001860AEF80A1013E0C1071A6801D4111DEC
:100C90001960128840F2600CC2F2000C82F400412C
:100CA000ACF80A10D1E740F26003C2F200035989A0
:100CB000042001F045F94FF47050C4F20000002107
:100CC000BDE808400BF03CBEC0071A6801D4111DF6
:100CD0001960128840F2600CC2F2000C82F40041EC
:100CE000ACF80A10E4E700BF10B50446002001F09C
:100CF00069FA45F222639C4237D014D94AF644413E
:100D00008C4238D01FD94BF68032944227D04FF412
:100D1000EE4CC0F2010C64451CD14FF4AC700221C2
:100D200001F046FA16E042F6113084420ED0B4F5D6
:100D30007A5F0BD0B4F5FA5F0CD14FF480700521C7
:100D400001F036FA06E0B4F5FA4F03D1D5200221BE
:100D500001F02EFA0120BDE8104001F033BA4FF443
:100D60008170032101F024FAF4E740F2AD10042170
:100D700001F01EFAEEE740F20F10022101F018FA1E
:100D8000E8E700BF2DE9F04710460C4690B0174643
:100D9000FFF7AAFF642C84BF4FF07D0A4FF064096F
:100DA00010D8220248F21F56151BC5F2EB1686FB1F
:100DB0000523EC17C4EB63115FFA81F909F11900FF
:100DC0005FFA80FA0820012101F098FA4FF44060A0
:100DD00000250126C4F202000CA94FF01008CDF83E
:100DE00030808DF834608DF835608DF836508DF890
:100DF000375005F077FD0720314601F07FFA4FF4B8
:100E0000806002244FF41072C4F202000CA90C920C
:100E10008DF834408DF835408DF836608DF83750B8
:100E200005F060FD4FF4806006210422C4F2020048
:100E300005F0DCFE4FF4806004220921C4F20200B8
:100E400005F0D4FE4FF400604FF4A053C4F202004A
:100E50000CA90C938DF834408DF835408DF8365040
:100E60008DF8375005F03EFD284604210622C4F2D5
:100E7000020040F2000405F0B9FEC2F200044FF493
:100E80000060C4F202000A21062205F0AFFEE0680D
:100E9000022800F0B78228460CA9C4F20200CDF85F
:100EA000308005F01FFD4FF40060C4F202000C21F9
:100EB000062205F09BFE4FF40060022300258022ED
:100EC000C4F202000CA98DF834308DF835300C9244
:100ED0008DF836508DF8375005F004FD4FF4006062
:100EE000C4F202000721062205F080FE4FF44060A4
:100EF0002A46C4F20200102105F072FE44F6FE7587
:100F0000063DFDD14FF440600122C4F202001021E1
:100F100005F066FE01214FF4001001F0FDF94FF4D9
:100F2000A840C4F200000BF02FFD0DF1400848F27C
:100F3000A061C0F201014FF4A84048F8201D4BF613
:100F4000FF723323C4F200000121ADF824504FF4A6
:100F500080464FF48065ADF82620ADF82830ADF816
:100F60002A50ADF82C600BF0BFFD4FF4A84041466D
:100F7000C4F200000BF040FD4FF49611A1604FF455
:100F8000A840C4F200004FF400310BF005FE002829
:100F900000F04A82A068461EA6600028EFD103F048
:100FA00081FB05464FF49611A1604FF4A840C4F2AE
:100FB00000004FF400310BF0EFFD002800F06C82D0
:100FC000A068461EA6600028EFD103F06BFB40F23C
:100FD0006008C2F20008AF2645194FF4961088F851
:100FE0000860A0604FF4A840C4F200004FF4003144
:100FF0000BF0D2FD002800F03382A368591EA160D7
:10100000002BEFD103F04EFB4FF496132D18A36085
:101010004FF4A840C4F200004FF400310BF0BCFDC7
:10102000002800F0C582A1684A1EA2600029EFD105
:1010300003F038FB4FF49611B9F1E60F0544A160B7
:1010400000F204814FF4A840C4F200004FF40031D4
:101050000BF0A2FD002800F02C83A668721EA2608F
:10106000002EEFD103F01EFB4FF49616A6604FF44E
:10107000A840C4F200004FF400310BF08DFD0028B1
:1010800000F0FB82A3685A1EA260002BEFD103F090
:1010900009FBE26840F2000C022AC2F2000C04BF15
:1010A0004FF49612CCF8082000F0F6804FF4961317
:1010B000A3604FF4A840C4F200004FF400310BF0DD
:1010C0006BFD002800F02082A168481EA060002966
:1010D000EFD103F0E7FA4FF496114519A1604FF4F0
:1010E000A840C4F200004FF400310BF055FD002879
:1010F00000F0EE81A068461EA6600028EFD103F044
:10110000D1FAE66840F2000E022EC2F2000E18BFBD
:101110004FF49616054418BFCEF8086012D04FF46D
:10112000A840C4F200004FF400310BF035FD002858
:1011300000F0DB82A068431EA3600028EFD103F01B
:10114000B1FA2D184FF49610A0604FF4A840C4F2E5
:1011500000004FF400310BF01FFD002800F060820A
:10116000A368591EA160002BEFD103F09BFA4FF446
:1011700096134519A3604FF4A840C4F200004FF441
:1011800000310BF009FD002800F02E82A1684E1EF0
:10119000A6600029EFD103F085FA4FF496112D18BF
:1011A000A1604FF4A840C4F200004FF400310BF0EE
:1011B000F3FC002800F0E081A668701EA060002EFD
:1011C000EFD103F06FFA4FF496162D18A6604FF486
:1011D000A840C4F200004FF400310BF0DDFC002801
:1011E00000F0AE81A068431EA3600028EFD103F099
:1011F00059FA034601214FF40040ED1801F08CF834
:101200004FF47050C4F200000BF0D6FA4FF4705057
:1012100000264FF4007CC4F2000069460297ADF846
:101220000260ADF80460ADF80C60ADF800C0ADF838
:1012300006C00BF0F9FAE068022800F00D820120E8
:10124000002D00F0958010B0BDE8F0874FF4A84065
:10125000C4F200004FF400310BF09EFC002800F0B7
:101260006282A068421EA2600028EFD103F01AFA41
:101270004FF49610A0604FF4A840C4F200004FF461
:1012800000310BF089FC002800F06982A668721E0C
:10129000A260002EEFD1FAE64FF4A840C4F200009D
:1012A0004FF400310BF078FC002800F08083A36835
:1012B000591EA160002BEFD103F0F4F94FF49613FF
:1012C0004519A3604FF4A840C4F200004FF4003168
:1012D0000BF062FC002800F03483A168481EA06077
:1012E0000029EFD103F0DEF94FF496112D18A1601B
:1012F0004FF4A840C4F200004FF400310BF04CFC56
:10130000002800F03983A068461EA6600028EFD1AF
:1013100003F0C8F92D184FF49610A0604FF4A840C0
:10132000C4F200004FF400310BF036FC002800F04E
:10133000ED82A668731EA360002EEFD103F0B2F910
:101340004FF496162D18A6604FF4A840C4F2000082
:101350004FF400310BF020FC002800F0B982A368A4
:10136000591EA160002BEFD103F09CF92D189DE6CA
:1013700000BFE76840F20006012FC2F2000600F04D
:101380004A82E268012A00F006820120C0F22000B1
:10139000012100F0B3FF4FF00050012100F0BCFF2D
:1013A0000020044603221023C4F202000CA98DF889
:1013B00034200C938DF8374005F094FA022304A9E9
:1013C0002046079304940594069400F08BFD204674
:1013D000012100F0A1FD4FF47050C4F20000712112
:1013E00001220BF0B9FA0FA8332201238DF83C201B
:1013F0008DF83D408DF83E408DF83F300BF086FF74
:10140000204620E73046314600F078FF00200326D2
:10141000C4F202000CA9CDF830808DF834608DF84C
:10142000375005F05FFA46E54FF4A840C4F20000DB
:1014300001214FF480550BF065FBA5604FF4A840E7
:101440000121C4F20000C0F203010BF095FB00285B
:1014500040F0BF81A3685A1EA260002BEED19EE52A
:101460004FF4A840C4F2000001210BF04BFB4FF4F5
:101470008052A2604FF4A8400121C4F20000C0F2E3
:1014800003010BF079FB002840F0BF81A068461EE5
:10149000A6600028EED1B5E54FF4A840C4F20000E4
:1014A00001210BF02FFB4FF48053A3604FF4A840B1
:1014B0000121C4F20000C0F203010BF05DFB002823
:1014C00040F09D81A1684A1EA2600029EED17CE512
:1014D0004FF4A840C4F2000001210BF013FB4FF4BD
:1014E0008053A3604FF4A8400121C4F20000C0F271
:1014F00003010BF041FB002840F07C81A1684A1EEB
:10150000A2600029EED1FAE54FF4A840C4F2000031
:1015100001214FF480560BF0F5FAA6604FF4A84075
:101520000121C4F20000C0F203010BF025FB0028EA
:1015300040F05B81A3685A1EA260002BEED1C8E583
:101540004FF4A8400121C4F200000BF0DBFA4FF485
:101550008051A1604FF4A8400121C4F20000C0F204
:1015600003010BF009FB002840F02D81A668721ED4
:10157000A260002EEED13AE64FF4A840C4F200007B
:1015800001210BF0BFFA4FF48053A3604FF4A84041
:101590000121C4F20000C0F203010BF0EDFA0028B3
:1015A00040F00C81A1684A1EA2600029EED108E635
:1015B0004FF4A840C4F2000001210BF0A3FA4FF44D
:1015C0008050A0604FF4A8400121C4F20000C0F296
:1015D00003010BF0D1FA002840F0EB80A668731EDF
:1015E000A360002EEED123E54FF4A840C4F2000022
:1015F00001210BF087FA4FF48050A0604FF4A8400F
:101600000121C4F20000C0F203010BF0B5FA00287A
:1016100040F0CA80A3685A1EA260002BEED1BAE542
:101620004FF4A840C4F2000001214FF480560BF0A3
:1016300069FAA6604FF4A8400121C4F20000C0F28C
:1016400003010BF099FA002840F0CA80A068421EFE
:10165000A2600028EED188E501214FF0005000F093
:101660005BFE04A9304604960596079600F03AFC06
:101670003046012100F050FCE1E54FF4A840012183
:10168000C4F200000BF03EFA4FF48051A1604FF419
:10169000A8400121C4F20000C0F203010BF06CFA73
:1016A000002840F00981A068461EA6600028EED1FF
:1016B000EDE44FF4A840C4F2000001210BF022FA3F
:1016C0004FF48053A3604FF4A8400121C4F20000FE
:1016D000C0F203010BF050FA002840F0F380A1683B
:1016E000481EA0600029EED1BCE44FF4A8400121BF
:1016F000C4F200000BF006FA4FF48051A1604FF4E1
:10170000A8400121C4F20000C0F203010BF034FA3A
:10171000002840F06681A668721EA260002EEED1FD
:1017200002F0C0FF0DE54FF4A840C4F20000012113
:101730004FF480560BF0E6F9A6604FF4A840012163
:10174000C4F20000C0F203010BF016FA002840F0CA
:101750005581A368591EA160002BEED186E54FF498
:10176000A840C4F2000001210BF0CCF94FF48053E3
:10177000A3604FF4A8400121C4F20000C0F20301AD
:101780000BF0FAF9002840F03381A168481EA060F0
:101790000029EED17BE44FF47050C4F20000022126
:1017A0000BF0D0F800204EE51F200F21FEF71AFEA7
:1017B000F3E406200421FEF715FE3BE41A200A217B
:1017C000FEF710FEFFE41B200A21FEF70BFE034686
:1017D00010E502200121FEF705FE0546FFF7E2BBFA
:1017E00027200021FEF7FEFDC1E402209E21FEF726
:1017F000F9FD70E40A200021FEF7F4FD81E40420E5
:10180000AF21FEF7EFFDFFF7E2BB05208121FEF7D8
:10181000E9FDFFF7F9BB3069394600F06FFD294655
:10182000306805F00BFC306805F0C6FA40F2F00CA9
:10183000C2F2000C7269D8F80410CCF804204023DE
:101840004FF6FE72CCF80C30CCF810204FF48063C9
:101850004FF40062CCF81830CCF81C204FF4005341
:101860004FF40032CCF80010CCF820306146CCF8B0
:1018700028203068CCF80850CCF81450CCF824500C
:10188000CCF82C50CCF83050CCF83450CCF8385040
:1018900005F088FB306810213A4605F021FCB36959
:1018A0008DF839500EA88DF838308DF83A508DF8F3
:1018B0003B700BF02BFD64E521205146FEF792FDB5
:1018C000FFF7E7BB20205146FEF78CFDFFF7CCBBAE
:1018D0004FF4A840C4F2000001210BF013F94FF4BB
:1018E0008050A0604FF4A8400121C4F20000C0F273
:1018F00003010BF041F9002840F08A80A668721EAF
:10190000A260002EEED102F0CDFE2FE54FF4A840EC
:101910000121C4F200000BF0F5F84FF48051A160F2
:101920004FF4A8400121C4F20000C0F203010BF003
:1019300023F9002878D1A068421EA2600028EFD1C8
:10194000FCE44FF4A840C4F2000001214FF480569B
:101950000BF0D8F8A6604FF4A8400121C4F20000B3
:10196000C0F203010BF008F9002858D1A3685A1EF1
:10197000A260002BEFD1B5E44FF4A840C4F2000000
:1019800001210BF0BFF84FF48053A3604FF4A8403F
:101990000121C4F20000C0F203010BF0EDF80028B1
:1019A00047D1A1684A1EA2600029EFD1B0E44FF4EC
:1019B000A840C4F2000001210BF0A4F84FF48050BD
:1019C000A0604FF4A8400121C4F20000C0F203015E
:1019D0000BF0D2F8B8B9A668721EA260002EF0D142
:1019E0006AE40E200421FEF7FDFC2D18FFF7AABBC8
:1019F00051462120FEF7F6FCFFF74BBB2020514655
:101A0000FEF7F0FC34E408200121FEF7EBFC55E47E
:101A100015200021FEF7E6FC2D18FFF747BB092033
:101A20000121FEF7DFFC5FE414200021FEF7DAFC61
:101A300086E40E20C021FEF7D5FC6BE470B50346AA
:101A400051B10B46054601E01D463346B5FBF3F6A2
:101A500003FB1656002EF7D1002B33D0B1FBF3F168
:101A6000144651B10C46154601E025463446B5FBF7
:101A7000F4FC04FB1C56002EF7D11CB3B1FBF4F1AF
:101A800001B3B2FBF4F48C42B0FBF3F30FD88B42FA
:101A900081BFB3FBF1F201FB12336343B3FBF1F1FE
:101AA00096BF634304FB0210B3FBF1F070BDB4FBBF
:101AB000F1F501FB154403FB04F0B0FBF1F103FB6E
:101AC000051070BD05F076F99A4238B5144634BF5A
:101AD00000220122002B0CBF002202F00102054669
:101AE00001602AB1B4FBF3F25118016003FB124408
:101AF000B3F57A5F00F089802DD9B3F5FA4F58D04D
:101B00003ED845F22262934271D045F6C0518B42D5
:101B100067D04FF49A4220461946C1F20752FFF7A8
:101B20008DFF0446686044F6FF41C1F207518C42C4
:101B300010D947F61110CCF2C820A0FB0423296865
:101B40004FF49A401A0FC1F20750891800FB124453
:101B500085E8120038BDB3F57A7F4ED024D942F61D
:101B60001130834237D042F6E06C63452DD0B3F597
:101B7000FA5FCED14AF6444000FB04F46C60D2E731
:101B80004BF6803083421AD04FF49A4CC1F2075C76
:101B9000634507D04AF644429342BAD14FF4FA5C07
:101BA0000CFB04F46C60BEE7012BB2D800236B6021
:101BB00038BD42F6113202FB04F46C60B3E741F623
:101BC000B64303FB04F46C60ADE747F2D82C0CFB82
:101BD00004F46C60A7E74FF4FA4202FB04F46C6073
:101BE000A1E743F66C1000FB04F46C609BE74FF434
:101BF0007A5101FB04F46C6095E746F22021C0F2B3
:101C0000050101FB04F46C608DE745F2226303FBE0
:101C100004F46C6087E700BF08B54FF48053C4F24A
:101C20000103984228D04FF48841C4F20001884251
:101C30002CD04FF49042C4F20002904232D04FF4C4
:101C4000984CC4F2000C604538D04FF4A043C4F265
:101C5000000398423ED04FF4A051C4F201018842E3
:101C600000D008BD2020012100F072FB20200021BF
:101C7000BDE8084000F06CBB1020012100F068FBBB
:101C800010200021BDE8084000F062BB01214FF4A4
:101C9000003000F04FFB4FF400300021BDE8084059
:101CA00000F048BB01214FF4802000F043FB4FF4CB
:101CB00080200021BDE8084000F03CBB01214FF42A
:101CC000002000F037FB4FF400200021BDE8084061
:101CD00000F030BB01214FF4801000F02BFB4FF4DB
:101CE00080100021BDE8084000F024BB028AB1F852
:101CF0000CC022F44053F0B50446B1F806E08E88DB
:101D000048890F890D4619040A0C42EA0E03238202
:101D1000A18921F4B05222F00C0347EA060E1904FF
:101D20004EEA0006B2B2080C42EA0003A381B4F8FE
:101D300014E02EF440710E04320C42EA0C0085B01F
:101D4000A082684600F07CFA4FF48053C4F201038D
:101D5000E11A4E424FF4A050C4F2010046EB0102DA
:101D6000844214BF134642F00103002B28D0A689F9
:101D7000039B30B2002828DB2E6803EB830303EBC0
:101D8000830EB000BEFBF0F148F21F53A089C5F2EC
:101D9000EB13A3FB015672090FFA80FC16016425B0
:101DA000BCF1000F02FB151218DB10013230A3FB4F
:101DB0000053C3F3431545EA0603238105B0F0BD84
:101DC000A689029B30B20028D6DA2A6803EB830C7E
:101DD0000CEB8C015500B1FBF5F1D5E7D2003232A6
:101DE000A3FB021ECEF3421141EA0603E5E700BF62
:101DF00000234FF416510C2201608380C3800381BD
:101E000042818381704700BF838929B923F400513F
:101E10000B041A0C8281704799B241F400538381FC
:101E2000704700BFCA05D10D81807047838A9BB27D
:101E30001AB923EA010282827047194381827047EE
:101E400001F01F0310B4C1F34211012414FA03F38B
:101E5000A1420ED002290ED014302AB9016821EA1D
:101E60000303036010BC7047026842EA030101608B
:101E7000F8E70C30F1E71030EFE700BF03881942B4
:101E80000CBF00200120704710B401F01F02012494
:101E9000C1F342139440012B18D0022B0CBF028ACD
:101EA000828A1FFA82FC04EA0C0200880124090AD3
:101EB00083B214FA01F119420CBF00200120002A5C
:101EC0000CBF002000F0010010BC704783899AB25B
:101ED0002240EAE7090A012313FA01F2D143018003
:101EE000704700BF70B491E860004FF4E8438C681D
:101EF000CA68C4F2000335432C431E6840F6FE71E5
:101F000011FA00F5224326EA050512FA00F145EA26
:101F10000100186070BC70474FF4E843C4F200033E
:101F20001A6831B9012111FA00F022EA00021A60A0
:101F300070470121814041EA02001860704700BFEC
:101F400082B04FF4E843C4F20003002201920193EF
:101F5000019A083210180190019B196002B0704775
:101F600040F2000040F26001C2F20000C2F2000143
:101F7000884270B434D249F23804C0F601042246D3
:101F8000034652F8046B43F8046BC5434D198B426A
:101F9000C5F3810524D29DB1012D0BD0022D1FBFA9
:101FA000156804F108021D6000F1080352F8040BE3
:101FB00043F8040B52F8040B43F8040B8B420FD286
:101FC0001446184654F8045B566840F8045B64688D
:101FD000D5685E604460DD60103310328B42EFD311
:101FE000064807494FF000028842B8BF40F8042B6A
:101FF000FFF6FAAF70BC00F06DB800006000002082
:10200000FC76012008B5012000F030F8002000F037
:102010002DF8022000F02AF8032000F027F8F2E75C
:1020200030B54EF6B014C0F60004054683B0012169
:1020300054F8200004EB450400F060F940F2300051
:10204000218AC2F20000012300918DF804300022A1
:102050008DF8073050F825008DF8062002236946D8
:102060008DF8053004F03EFC03B030BD4EF6B012E2
:10207000C0F6000240F2300C02EB4001C2F2000C4C
:102080000B8A5CF820201383704700BF4EF6B01215
:10209000C0F6000240F2300C02EB4001C2F2000C2C
:1020A0000B8A5CF820205383704700BF40F2300356
:1020B000C2F200034EF6B012C0F6000253F8203010
:1020C00002EB400C5969BCF8100080EA01025A6129
:1020D000704700BF08B50120FFF7A2FF0020FFF7FF
:1020E0009FFF0220FFF79CFF0320FFF799FF0120CD
:1020F000FFF7BCFFC8200CF033F80120FFF7C6FF44
:1021000002F024FAFEE700BF4FF46053C4F202036A
:102110000022186840F0010119609A60186843F2C3
:10212000100120F0847C2CF48030C2F20041186051
:102130005960186820F480211960DA60704700BF88
:1021400043F60203C4F2020300221A7018707047AB
:1021500082B04FF4605100230193C4F202010A6877
:102160000198431C01930198B0F5A06F01D093032F
:10217000F5D54FF46052C4F202021168C1F3404039
:1021800002B07047084340EA821C009A5B084FF493
:1021900060504CEA0261013BC4F2020041EA034292
:1021A000426070476023C4F247231860704700BF45
:1021B0004FF460538001C4F2020340EA0171C3F896
:1021C000841070476823C4F247231860704700BF2B
:1021D0004FF46053C4F202039A6822F0030140EA0C
:1021E00001029A60704700BF4FF46053C4F20203CB
:1021F000986800F00C0070474FF46053C4F202037B
:102200009A6822F0F00140EA01029A60704700BF2C
:102210004FF46053C4F202039A6822F4E05140EA9A
:1022200001029A60704700BF4FF46053C4F202038A
:102230009A6822F4604141EAC0029A60704700BF88
:102240004FF46053C4F2020310B49A6802F00C0217
:10225000042A02BF4FF49051C0F27A01016007D006
:10226000082A1EBF4FF41051C0F2F401016020D0C3
:102270004FF46053C4F2020340F2440C9A68C2F275
:10228000000CC2F303141CF80420D14041609C6888
:10229000C4F382221CF8024031FA04F484609A6884
:1022A000C2F342331CF8032031FA02F3C36010BCBE
:1022B00070475C685A68596814F4800F4FF4605C8A
:1022C00014BF4FF490534FF41053C4F2020C14BFD8
:1022D000C0F27A03C0F2F40302F03F02C1F38814A3
:1022E000B3FBF2F1DCF80430C3F3014201FB04F16B
:1022F000541C6300B1FBF3F10160B9E74FF4605384
:10230000C4F202031A6B19B922EA0001196370477B
:1023100010431863704700BF4FF46053C4F20203C8
:102320001A6C19B922EA0001196470471043186445
:10233000704700BF4FF46053C4F202031A6A19B920
:1023400022EA00011962704710431862704700BF0B
:102350004FF46053C4F202035A6A19B922EA000129
:102360005962704710435862704700BF4309012B00
:102370000ED0022B4FF46053C4F2020300F01F0191
:102380000CBF1B6F5B6F33FA01F000F00100704768
:102390004FF46053C4F2020300F01F011B6833FACC
:1023A00001F000F00100704730B54EF6E015C0F6C0
:1023B000000585B02C88A978ADF80C4040F26C047B
:1023C000C2F200044FF496708DF80E1001250BF048
:1023D000C7FE4FF496700BF03BFF032103A8257056
:1023E0000BF0EAFE4FF496700BF0BAFE4EF6842026
:1023F000C0F6000003C80B0C0190ADF8081001A84E
:1024000006218DF80A300BF0F5FE4FF47A700BF0D0
:10241000A7FE40F25402C2F200020023A370237010
:102420001570E3705570637023710BF03FFE05B0BB
:1024300030BD00BFF0B540F26C04C2F2000497B0AA
:10244000A578012D3CD02378A3B1002D6DD1207843
:1024500040F26C03C2F2000350B940F2540CC2F2D5
:10246000000C9CF801201AB9DB78012B00F08C805D
:1024700017B0F0BD40F25400C2F200004678012EC1
:10248000E3D1022D00F0FC804EF6E01CC0F6000CFB
:102490004FF49670BCF800209CF80250ADF8002074
:1024A0008DF802500BF05CFE4FF496700BF0D0FEEE
:1024B0006846032126700BF07FFEA578012DC4D15C
:1024C000237840F26C05C2F20005002B49D0217838
:1024D00040F26C04C2F200040029C9D140F2540C4D
:1024E000C2F2000C9CF801000028C1D17C4B93E89B
:1024F00003000090C8208DF804100BF0A9FE0522FF
:102500006846114622700BF075FEB1E7032142F2D6
:102510001070062561700BF0C7FE25700BF0D0FD22
:10252000684656210BF048FEA578032D16D1207879
:1025300040F26C05C2F20005002899D1684B93E87F
:1025400003000090C8208DF804100BF081FE0522D6
:102550002A70684611460BF04DFEAD78012DB6D0BD
:1025600086E740F25406C2F2000670780128AED128
:1025700004F04AFE002840F09780EB7813B93078D9
:10258000002862D0AD7860E7C8200BF0E9FD4EF678
:102590002C2157226846C0F600010CF0E9F89DF89E
:1025A00000300A250D20402B0DF1570600F09480D5
:1025B000232B08BF8DF800500DF1010313F8012BF8
:1025C000402A08BF03F8010C2CD0232A08BF03F8C7
:1025D000015C27E0232908BF02F8015C5A78991CA6
:1025E000402A08BF01F8010C03D0232A08BF01F8D4
:1025F000015C9A78D91C402A08BF01F8010C03D06D
:10260000232A08BF01F8015CDA780433402A08BFA6
:1026100003F8010C03D0232A08BF03F8015CB3427E
:102620003FF474AF13F8012B402A08BF03F8010CE4
:1026300003D0232A08BF03F8015C1A4612F8011BD5
:102640004029C7D102F8010CC8E74EF61426C0F69F
:1026500000060FCE6F460FC796E8030047F8040B3D
:102660004FF47A7039800D218DF814100BF0F0FDC5
:1026700003222A70684615210BF09EFDAD78E4E632
:102680004EF6FC11C0F6000103C90090C8208DF879
:1026900004100BF0DDFD6846042125700BF0AAFD47
:1026A000FA200BF05DFD08E70E4E4FF4FA6004F0DF
:1026B000C5FD96E80F006E4607C626F8023B190CCA
:1026C000C82031700BF0C4FD04222A7068460F2127
:1026D0000BF090FDAD78B8E68DF800006CE700BF18
:1026E000F4E90008E4E90008704700BF08B50120DC
:1026F000FFF7BCFC0020FFF7B9FC0220FFF7B6FC97
:102700000320FFF7B3FCF2E7FEE700BFFEE700BFE0
:10271000FEE700BF704700BF704700BF704700BFB3
:1027200002200AF059BA00BF4FF4006008B5C4F2A5
:10273000000002210BF030FD00B908BD4FF400602D
:10274000C4F200000221BDE808400BF031BD00BF1B
:102750002DE9F0418D7884B00C4606461746002DD1
:1027600050D1CD7829460BF063F9294601903046C7
:102770000BF05EF92946029030460BF059F90390B0
:102780006B1E0121019AA068666811FA03F383EABF
:10279000020808EA0301C1F10002C5F11D01029D12
:1027A00083EA050E42EA080515FA01F210180EEA4E
:1027B000030580FB0628120F42EB0810039E3860C9
:1027C000C5F10005A26860685E4045EA0E058D40CF
:1027D000334005EB020E5D428EFB003C1B0F43EBCA
:1027E0000C127A6045EA0603A068626813FA01F1E8
:1027F0000D1885FB02311B0F43EB0115BD6004B0C2
:10280000BDE8F081C9780BF013F9B4F80080B0FB93
:10281000F8F3B3FBF8F2B2FBF8F608FB130008FB81
:10282000123108FB1623019002910393A8E700BF21
:102830002DE9F04F4C78B3B005460A91002C40F0DA
:10284000E98120268B6909960124DA065CBF05F12F
:102850001C08CDF8208000F1F181099E0DF1480996
:10286000002E00F01782DDF820804F4609EB060AA3
:1028700004F1FF320421404602F0030B0BF0D8F8BC
:102880000F2800F0BE8100B101300126A642387049
:1028900062D2BBF1000F2AD0B3451AD0BBF1020FB0
:1028A0000BD0042140460BF0C3F80F2800F0A9819B
:1028B00000B1801972010136B854042140460BF072
:1028C000B7F80F2800F09D8100B101307101013689
:1028D0007854042140460BF0ABF80F2800F09181AA
:1028E00000B1013073010136A642F85434D20421FC
:1028F00040460BF09DF80F2800F08381421C00B980
:102900000246710140467A5404210BF091F80136D9
:102910000F2800F07681024600B1421C710140464A
:102920007A5404210BF084F8731C0F2800F069819D
:10293000024600B1421C5B010421FA5440460BF0F0
:1029400077F8B31C0F2800F05C8100B101305A0108
:102950000336A642B854CAD30137574588D1099ED9
:102960001F2E40F2978122AB4D46C9EB030ACDF8EA
:102970001C90DDF820900DF1680B2978661E0AEB9B
:10298000050806F00307002940F0B5840126A64299
:1029900032D2BFB1B7420DD0022F05D095F82070CA
:1029A000002F40F0088201367701E95D002940F0F0
:1029B000098201367701E85D002840F0A4840136E1
:1029C000A64219D27701E85D002840F0BC840136A8
:1029D0007701EB5D002B40F0AE84721C5701EB5D7C
:1029E000002B40F0A084B71C7F01E95D002940F076
:1029F00092840336A642E5D301355D45BDD10A9FD9
:102A0000099ADDF81C904FF000084EF68C2B07EB6E
:102A10008205CDF83C801095C0F6000B099D002D75
:102A200000F099800F98460100250B965B46DDF873
:102A30002C80DDF828A019F8056008EB050C0CF1D6
:102A40000A070DF1880E0AEB870804F1FF320EEB3E
:102A5000050BCDF81CB008F1040702F0030B09EBDD
:102A6000050A3246002E40F0B8810126A642C8F879
:102A7000042007F590574FF0200864D2BBF1000FF7
:102A80002DD0B3451CD0BBF1020F0CD09AF820B06A
:102A90005946BBF1000F40F0BB823960013608F1A6
:102AA000200807F590571AF808B05946BBF1000FF7
:102AB00040F0E4823960013608F1200807F59057AC
:102AC0001AF808B05946BBF1000F40F00E830136EA
:102AD000A642396008F1200807F5905733D29B468B
:102AE0001AF80830002B40F0D68308F120083B602C
:102AF0001AF808300136069607F59057002B40F07B
:102B00009C8308F120020C921AF802603B6007F5E2
:102B1000905C002E40F0598308F14003CCF800602F
:102B20001AF8036007F5105C002E40F01583334659
:102B3000069ECCF800300336A64208F1600807F57F
:102B40005857CDD35B46099E0135B5427FF46FAF30
:102B50001F2E9B464AD8109D099E19F80670002F1B
:102B600040F06C8101220023611EA242EB6201F061
:102B700003014FF4905335D2D9B101290FD0022966
:102B800005D0E9180023CB6202224FF4105305EB65
:102B9000030C00270132CCF82C7003F5905305EBA1
:102BA000030E01320027A242CEF82C7003F5905399
:102BB00018D203F5905703F5105003F5585805EB5C
:102BC000030CEF1905EB000EA84404320021A242C9
:102BD000CCF82C1003F59043F962CEF82C10C8F80D
:102BE0002C10E6D3013604351F2EB6D90F99109B51
:102BF0004A1C80330C2A0F9210937FF40FAF0020F1
:102C000005E040F2112AA5F83CA04FF0FF3033B0A8
:102C1000BDE8F08F0A9F022CBB6937D17E68711C1A
:102C200043F480738A000992DA0658BF05F11C0844
:102C3000BB6158BFCDF820807FF50FAE04F1804115
:102C4000099EDDF828A0481E06FB00F808F12002C6
:102C500005F11C089200BAF81430CDF8208098E8ED
:102C600003000AF05DFFBAF81630AAF81400834298
:102C70003FF4F3ADDAF82830DB075EBF40F20128FD
:102C8000A5F83C804FF0FF30C1D5E6E520200224B6
:102C90000990DAE5099A0898042109EB0206C2F1C5
:102CA0001F070AF0C5FE1F360F2807F003077AD06A
:102CB00000287ED1099B06F8010F03F10108B8F145
:102CC0001F0F06F8200C3FF64EAE002F31D0012F1B
:102CD0001DD0022F0DD0042108980AF0A9FE0F285C
:102CE00061D0002877D106F8010F08F1010806F835
:102CF000200C042108980AF09BFE0F2853D00028CE
:102D000067D106F8010F08F1010806F8200C04212C
:102D100008980AF08DFE0F2845D000B1013006F862
:102D2000010F08F10108B8F11F0F06F8200C3FF65B
:102D30001AAEDDF820A030E0431C00B90346771C32
:102D400073700421504607F8203C0AF071FE0F28EA
:102D500008F1010827D000B10130787007F81F0C86
:102D6000042150460AF064FE0F281CD000B1013047
:102D7000B87007F81E0C042150460AF059FE0F28BF
:102D800011D000B10130FE1C08F10308B8F11F0F8B
:102D9000F87006F8200C3FF6E6AD042150460AF024
:102DA00047FE0F28C8D140F21127AF874FF0FF3000
:102DB0002DE701307EE7484606210AF039FE88F803
:102DC0002000F0E5484606210AF032FE08F8070028
:102DD000EFE5013095E7013085E731460898049327
:102DE0000AF026FE711E012212FA01F3584000EA91
:102DF00003020DF1880C534243EA00021CF805C09F
:102E0000049BC6F11D0003EB8C0C8240023E4FF088
:102E1000805050FA01F15018CDF818C0DCF8382075
:102E200053F8266080FB06C15FEA1C7C4CEB011660
:102E300086FB021C090F41EB0C1216E63946089876
:102E40000AF0F6FD791E012202FA01F822AB80EAAF
:102E500008009B1900EA080CCCF1000893F800A0C8
:102E600048EA000CC7F11D000CFA00F0023F0BEB22
:102E70008A0A4FF0805C4CFA01F804F1FF3C00EB49
:102E800008015BF82700DAF8387081FB008A5FEAF6
:102E9000187848EB0A110CF0030081FB07C85FEAC1
:102EA0001C7C4CEB0817A2424FF4905CEF62BFF41D
:102EB00099AE00283CD0012825D0022811D093F8E3
:102EC000202005EB0C000BEB820E0222DEF838709E
:102ED00081FB07C85FEA1C7C4CEB08174FF4105CC1
:102EE000C762500105EB0C0A1F5C0BEB870801322F
:102EF000D8F8380081FB00783F0F47EB08100CF53D
:102F0000905CCAF82C00500105EB0C0A1F5C0BEB1F
:102F1000870E0132DEF8380081FB00783F0F47EB67
:102F20000810A2420CF5905CCAF82C00BFF45AAE0F
:102F3000501C4001D71C185C7F0107900CF55850BD
:102F40000E9005EB0C00DF5D0B900798119702F1D6
:102F5000020A0CF510570BEB800007904FEA4A1855
:102F6000E819119F13F808A00D904FEA421E0BEBD1
:102F700087000E9FCDF830A0119013F80EE0DDF819
:102F800030A0E819079F0E900CF59058BF6B0BEB23
:102F90008E0EA844CDF818800BEB8A08DEF83800B6
:102FA000CDF83080019781FB008A5FEA187848EB02
:102FB0000A1707970198DDF82CA081FB00875FEACC
:102FC000187848EB071E0798DDF81880CAF82C001F
:102FD0000C9FC8F82CE0DDF844A0DDF834E0B86BB5
:102FE00081FB00783F0F47EB08100432DAF83870A5
:102FF000CEF82C00DDF838A081FB0708000F40EB6D
:103000000817A2420CF5904CCAF82C7090D3E9E551
:103010005946089804930AF00BFD0BF1FF3116FA9C
:1030200001F280EA020303EA02004242DDF81CC01A
:1030300042EA0300CBF11D0210FA02F2049B9CF855
:1030400020C04FF0805050FA01F1501803EB8C0C67
:10305000ABF1020B069053F82B10DCF83820CDF8BA
:1030600030C0DDF818B08BFB010C000F40EB0C1BDF
:103070008BFB020C000F40EB0C110EE55946089833
:1030800004930AF0D5FC0BF1FF31012313FA01F28E
:1030900080EA020303EA02004242DDF81CC042EA71
:1030A0000300CBF11D0210FA02F2049B1CF808C0C9
:1030B0004FF0805050FA01F1501803EB8C0CABF13B
:1030C000020B069053F82B10DCF83820CDF830C0F6
:1030D000DDF818B08BFB010C000F40EB0C1B8BFBD9
:1030E000020C000F40EB0C11E4E4594608980493DD
:1030F0000AF09EFC0BF1FF31012313FA01F280EA82
:10310000020303EA02004242DDF81CC042EA030067
:10311000CBF11D0210FA02F2049B1CF808C04FF01C
:10312000805050FA01F1501803EB8C0CABF1020BFC
:10313000069053F82B10DCF83820CDF830C0DDF8BD
:1031400018B08BFB010C000F40EB0C1B8BFB020C2F
:10315000000F40EB0C11BAE4314608980493CDF807
:1031600014C00AF065FC711E012212FA01F380EA14
:10317000030C0CEA03020798049B0D92C25C0D98A5
:103180000C9243420C9A43EA0C00C6F11D0310FA5C
:1031900003F30BEB82024FF080500D9250FA01F2D4
:1031A0009818023E0D990C905BF826208B6B0C9EB4
:1031B000DDF814C086FB0210090F41EB001686FBF8
:1031C0000310090F41EB0013B2E431460898CDF823
:1031D00014C00AF02DFC711E012212FA01F380EADC
:1031E000030C0CEA030207980C9B0D92C25C0D982D
:1031F0000C9243420C9A43EA0C00C6F11D0310FAEC
:1032000003F30BEB82024FF080500D9250FA01F263
:103210009918023E0D980C915BF82620836B0C9E4A
:10322000DDF814C086FB0210090F41EB001686FB87
:103230000310090F41EB00166EE419460898049339
:103240000AF0F6FB049EDDF81CC0721E012313FA7F
:1032500002F180EA010303EA01001CF808C04142C0
:1032600041EA0300C6F11D01B31E10FA01F10BEB98
:103270008C064FF0805010410A185BF82310B36B96
:1032800082FB0106000F40EB061C8CFB0310090FAC
:1032900041EB001335E41946089804930AF0C8FB83
:1032A000049BDDF81CC0591E01228A405040024098
:1032B0001CF808C0524210430BEB8C0CC3F11D02EA
:1032C00010FA02F2CDF818C04FF0805050FA01F118
:1032D000023B069802EB010C5BF82320836B8CFB0E
:1032E0000210090F41EB001C8CFB0310090F41EB8E
:1032F0000013FFF7FABB484606210AF099FB0AF8CB
:103300000500FFF743BB484606210AF091FB08F889
:103310000700FFF754BB484606210AF089FB08F86E
:103320000700FFF766BB484606210AF081FB08F854
:103330000700FFF758BB484606210AF079FB08F85A
:103340000700FFF74ABB484606210AF071FB08F860
:103350000700FFF73CBB00BF2DE9F04FF7B08346F5
:103360000B910B9C4978A26900290CBF012502250D
:10337000D3040A9524D4560500F1B786022DE368DC
:1033800000F0F4864FF46E40C0F20200834282BF28
:1033900040F22226ABF83C604FF0FF3000F2C883C9
:1033A0004BF68030834200F2D3860B9F3C69B4F524
:1033B000FA4F14BF0223032304931D461E4605E063
:1033C0004FF00409CDF810904D464E46EB004EF6F6
:1033D0008C20C0F600009D1900EB85040393D4F8FF
:1033E00038310C900F932023022900F08C860BF1CA
:1033F0001C0898E803000F9CCDF844800DF5E87A8E
:10340000A34238BF1C460E948AE80300002C6ED0FD
:10341000039D0498BC4CCDF818B02F1804EB870915
:10342000CDF81490DDF828900025DDF814C00C9B31
:103430000CEB050109F1FF3291F804E003EB8E0B70
:103440004046BBF8EC71394602F0030B0AF0F0FA83
:103450000DF5A27C0CEB05060124A145307040D986
:10346000BBF1000F1CD0BBF1010F10D0BBF1020F5C
:1034700006D0404639460AF0DBFA022486F82000DE
:10348000404639460AF0D4FA62010134B054394654
:1034900040460AF0CDFA61010134A145705420D9AB
:1034A000394640460AF0C4FA62013946B0544046F3
:1034B0000AF0BEFA04F101034FEA431B394606F84D
:1034C0000B0040460AF0B4FAA11C4A013946B05438
:1034D00040460AF0ADFAE31C5A010434A145B05449
:1034E000DED80E9C0135A5429FD1DDF818B00E9DA7
:1034F0000F9EB54280F09B80039ADDF810E0DDF866
:1035000030C00F9F02EB0E096B1E2E467E4D03EB63
:10351000890805EB08094D4651A815F8051F00EB71
:1035200006080CEB810EC7196FEA0804E21911981E
:10353000BEF8EC1102F003060AF07AFA444688F865
:10354000200004F8010BBC4271D096B3012E1FD0AD
:10355000022E0ED04D460C9E15F8069F119806EBD4
:103560008908B8F8EC110AF063FA84F8200004F82E
:10357000010B15F8010FDDF8308008EB800C119875
:10358000BCF8EC110AF054FA84F8200004F8010B9E
:1035900015F8013FDDF83090119809EB830EBEF865
:1035A000EC110AF045FA84F8200004F8010BBC4243
:1035B0003DD0DDF84480DDF83090CDF814B0697866
:1035C00009EB810E4046BEF8EC110AF031FAAE78F4
:1035D00084F8200009EB860B2646BBF8EC1106F8B0
:1035E000010B40460AF024FAEA7886F8200009EB3D
:1035F00082038446B3F8EC1184F801C040460AF017
:1036000017FA834615F8040F86F821B009EB8001FC
:1036100086F801B04046B1F8EC110AF009FA84F8D6
:103620002300E0700434BC42C9D1DDF814B00F9D12
:10363000002D5DD0A946CDF814B051AD0A9FDDF83C
:1036400044B061AE05EB0908002407F1FF33295DA2
:1036500003F00309002940F0B3800124A74241D9B7
:10366000B9F1000F1AD0A1450ED0B9F1020F04D064
:1036700095F82030002B76D101344FEA441915F823
:103680000920002A76D101344FEA441915F80910AF
:10369000002940F09B800134A74223D94FEA441906
:1036A00015F80900002840F0188501344FEA441944
:1036B00015F80930002B40F0088504F101034FEAAA
:1036C000431915F80900002840F0F78404F10201BD
:1036D0004FEA411915F80920002A40F0E684033426
:1036E000A742DBD8013501364545ADD1DDF814B030
:1036F0000B9EB269D00600F10F850F9C002C6CD098
:103700000026DDF828B00AE0C4EB000801352034BB
:103710006037AB4513D80F9F0136BE425DD04FEAEC
:10372000460961A809EB060C00240DF1840A0DF589
:10373000A27832180AEB0C072546B044059218F817
:1037400004000028E2D0119806210AF071F9DDF892
:1037500014A038701AF804A0BAF1030F1BD8DFE8E0
:103760000AF010152C15584602210AF061F986F866
:10377000200081E7584602210AF05AF906F80900AC
:1037800081E7119806210AF053F978701198062103
:103790000AF04EF9B8701AF0010FB7D005EB4501E9
:1037A00009EB06024801111821AB03EB010E0EEBE9
:1037B0000A0C1CF8012C7A70A8E77870B870A5E79D
:1037C000584602210AF034F9305546E7584602219E
:1037D0000AF02EF906F809005DE7039B049D0F9996
:1037E000C04A5F190026880002EB870405961596EB
:1037F00014961F900D940E9C002C6CD0149E15985E
:10380000DDF82880DDF830B0B508410103950024CB
:10381000069151ABDDF818A0DDF80CC00B9D0D9999
:103820001F190AEB040604EB44090A363B78E1440D
:1038300005EB860608F1FF320DF1840A0819CA4427
:10384000351D049002F0010C002B40F07481736070
:10385000C5F88030C5F800310126B0450AF160098D
:1038600005F5905533D9BCF1000F10D097F82030F2
:10387000002B40F073832B60C5F88030C5F8003111
:103880000136B04509F1600905F590551FD973015E
:10389000FB5C002B40F0D1832B60C5F88030C5F86D
:1038A00000310136730109F1600AFB5C05F59055A2
:1038B000002B40F08A832B60C5F88030C5F80031BA
:1038C0000136B0450AF1600905F59055DFD80E9D27
:1038D0000134AC429DD10E9E0F9CA64280F0D38055
:1038E0001498DDF85480DDF814C0DDF8149006EB70
:1038F000460101EB900221AF34464FEA481ACCF161
:10390000800BBE18C9F58078CDF81CB008960494D9
:10391000CDF840A0CDF818804FF0000B51AB049CBF
:103920001B5D002B40F0448110990B9E079D069F64
:10393000DDF82880DDF814C00B190A3306EB83028A
:10394000131D05EB030A4FF00109F91808F1FF30C8
:10395000C845C2F804B0CDF80C904AF80CB000F09D
:10396000030203F5905A41F80CB040F28180002A1E
:1039700044D0012A28D0022A13D00798069DDDF8EA
:103980001480CAF800B000EB0A0105EB0A0241F806
:1039900008B04FF0020A42F808B0CDF80CA003F5C9
:1039A000105ADDF81C80069E059F039CCAF800B0E3
:1039B00008EB0A0906EB0A0C49F807B0631C4CF83F
:1039C00007B003930AF5905ADDF81890DDF80C80E3
:1039D00007980A9ADDF814C0CAF800B009EB0A018A
:1039E00000EB0A0508F101094A4545F80CB0CDF88D
:1039F0000C900AF5905A41F80CB039D90798079CF9
:103A0000069DDDF81890CAF800B00AF55853C018A2
:103A1000099003980AF5905104300AF5105204EB0E
:103A20000A0805EB0A0C67186E1803900598A5188C
:103A300048F800B009EB02044CF800B09944C1F812
:103A400000B047F800B046F800B0C2F800B0099ADC
:103A500045F800B044F800B0C3F800B00A9C42F842
:103A600000B049F800B0039884420AF5904AC5D8DE
:103A70000499089F0F9B4A1CFE1C9A4204920896C8
:103A80007FF44CAF0F9C0B99DDF87CB0059F01EBE8
:103A90000B024FF00008A300DDF828B0C7EB0209C5
:103AA0004146C3F18007A2464A464FF0000CBAF1E6
:103AB0001F0F23D804233E1FBB42D162C6F38100EF
:103AC0001CD088B1012807D0022802D0D6180823BC
:103AD000F162D5180433E962D0180433BB42C162E5
:103AE0000CD001E0C4EB00081D1DD618501910338E
:103AF000BB42F162C1620163B163F5D10CF1010C0B
:103B00008032BCF1030FD2D108F10108C34509F599
:103B10009059C9D8149F159A059B7D1CD61CA3F5F6
:103B2000C0770C2D1495159605977FF464AE002090
:103B300077B0BDE8F08F04990879CDF808C00BEB99
:103B400080021198B2F8EEE1CEEB0E110BEB010200
:103B500002EB030E15499EF80B3203EB430E71AADC
:103B600001EB8E01FEF7F4FD21AB719813F80910FB
:103B70000BEB8102936B80FB0321120F42EB011CC4
:103B80007298C6F804C080FB0321120F42EB0110AB
:103B9000739EC5F8800086FB0321120F42EB0113D0
:103BA000DDF808C0C5F8003156E600BFF4EC0008A7
:103BB0000D9E754D06EB040898F80400DDF8308082
:103BC00008EB800A1198BAF8EE11C1EB011708EB67
:103BD000070202EB030971AA99F80BE20EEB4E06FD
:103BE00005EB8601FEF7B4FDDDF840C0DDF82CA042
:103BF000089B72981F78DDF8189009900CEB04016F
:103C00000A310AEB8101081D08EB8704719D079AB0
:103C1000A36B039509EB0008DDF82890CDF85880D8
:103C20002F4609F1FF3887FB0345240F44EB0516A7
:103C3000099C84FB03592D0F45EB0917DDF82890EB
:103C40004E6002EB000CDDF8CCA1169E8AFB03143B
:103C5000090F41EB04130122059C059D4CF80470EB
:103C600060219145735108F0030400F590537FF6ED
:103C7000FFAE002C00F08A80012C56D0022C2AD0F6
:103C8000089FDDF8309097F86020079C0699039F05
:103C900009EB820C04EB030801EB030EDCF838504F
:103CA00087FB0514090F41EB0416099981FB059464
:103CB0005FEA197949EB0417059C1E608AFB053100
:103CC0001B0F43EB011648F804704EF80460022203
:103CD000C02100F51053089EDDF83090745C079FFA
:103CE000069809EB840C07EB030800EB030EDCF8E5
:103CF0003860039F87FB0604000F40EB041509980A
:103D00001D6080FB06945FEA197949EB04178AFB72
:103D10000645240F44EB0510059D48F805704EF844
:103D200005000132603103F59053089EDDF83090B4
:103D3000705C079F069C09EB800C07EB030804EB03
:103D4000030EDCF83860039F87FB0604000F40EB8E
:103D5000041509981D6080FB06945FEA197949EB08
:103D600004178AFB0645240F44EB05100A9D059CA9
:103D700001326031954248F8047003F590534EF8D3
:103D800004007FF675AE01E0F4EC0008DDF81C805D
:103D9000DDF820909844CDF85C80DDF8188019F8A3
:103DA000015001F16004984419F80470CDF8608066
:103DB000DDF8308001F1C00E08EB870408EB8505C3
:103DC000DDF81C8019F80E00AD6BA46B03F5905E56
:103DD000F044CDF86480DDF81880F044CDF86880B8
:103DE000DDF8308001F5907608EB8007DDF81C8067
:103DF00019F806C0B86B03F51056B044CDF86C80C6
:103E0000DDF818800190B044CDF87080DDF8308086
:103E1000039808EB8C0CDDF81C80DCF8387003F597
:103E20005859C844CDF87480DDF818801297C844FA
:103E3000CDF8788080FB05C85FEA1C7C4CEB08104D
:103E40001390099880FB05C85FEA1C7C4CEB0810B6
:103E500016901398169F18608AFB05C85FEA1C7CB1
:103E60004CEB0810DDF85CC0DDF8148013904CF8C2
:103E70000870039880FB045C2D0F45EB0C18139D14
:103E80001898DDF814C040F80C50099880FB045CC9
:103E90002D0F45EB0C108AFB04572D0F45EB071433
:103EA000199F059DCEF8008013907851019D0398CD
:103EB00080FB05875FEA187848EB071EDDF868800D
:103EC000059F099848F8074080FB05875FEA187846
:103ED00048EB0714C6F800E0DDF86CC0DDF814E02C
:103EE000DDF870804CF80E402F468AFB07562D0FE8
:103EF00045EB0610129F039D48F80E0085FB07C690
:103F00005FEA1C7C4CEB0614099DC9F8004085FB58
:103F100007C65FEA1C7C4CEB0610DDF828C08AFB64
:103F20000745240F44EB051604321D9CDDF87890FC
:103F300044F80E00944501F5C07149F80E6003F590
:103F400090433FF623AF0499089F0F9B4A1CFE1C29
:103F50009A42049208967FF4E1AC93E5DDF810E014
:103F60009EF804000BEB800C1198BCF8EEE1CEEB50
:103F70000E110BEB0102D1187E4B91F80BC20CEB2A
:103F80004C0E03EB8E0171AAFEF7E2FB9AF860106B
:103F9000719ADDF8C8C1DDF8CCA10BEB8100836B11
:103FA00082FB0310090F41EB00128CFB0310090F79
:103FB00041EB001C2A608AFB0310090F41EB001340
:103FC000C5F880C0C5F800315AE4DDF810E09EF86D
:103FD00004000BEB800C1198BCF8EEE1CEEB0E1157
:103FE0000BEB010202EB030C624B9CF80B1201EB92
:103FF000410E03EB8E0171AAFEF7AAFB99F860004F
:104000007199DDF8CC910BEB800CDCF8383081FB3A
:104010000320120F42EB0011729A296082FB030CFD
:10402000000F40EB0C1289FB030C000F40EB0C134C
:10403000C5F88020C5F8003142E4DDF810A09AF8F8
:1040400004000BEB800E1198BEF8EEC1CCEB0C1106
:104050000BEB0102D118474B91F80BA20AEB4A0E69
:1040600003EB8E0171AAFEF773FB99F800007199BA
:10407000DDF8CCA10BEB800CDCF8383081FB0320A1
:10408000120F42EB0011729A296082FB030C000FA1
:1040900040EB0C128AFB030C000F40EB0C13C5F82D
:1040A0008020C5F80031FFF7FCBB5846022109F01B
:1040B000BFFC06F80900FFF712BB5846022109F0C1
:1040C000B7FC06F80900FFF701BB5846022109F0CA
:1040D000AFFC06F80900FFF7F0BA5846022109F0D4
:1040E000A7FC06F80900FFF7E0BADDF82CA0DAF823
:1040F00010004BF68038B0EB080618BF0126049676
:104100003546FFF763B90B9F7E6842F48072711CDD
:10411000BA618B00FFF76BB91199504609F058FC52
:10412000B38A02469AE8030009F0FAFCF18AB082E9
:1041300081423FF4E2AAB36AD9075EBF40F201258B
:10414000ABF83C504FF0FF307FF5F2ACFFF7D5BA3B
:104150004FF46255C0F20105AB42C6D84FF0000CD7
:10416000CDF810C065466646FFF730B95B08FFF72B
:1041700017B900BFF4EC0008BFF34F8F4FF46D4246
:10418000CEF200020420D368C0F2FA5003F4E061DA
:1041900041EA0003D360BFF34F8FFEE72DE9F047FC
:1041A00040F27404C2F200040F4626688D19B5F57A
:1041B000484F814642D240F25803C2F200030A46F9
:1041C000196889190AF04CFB2560207940F27403C4
:1041D000C2F20003002829D146F2880EC4F2020E72
:1041E000DEF80420A2F5484C65449D6094F80CC0AC
:1041F00040F274030320BCF1010FC2F2000308D0A7
:104200009B68002B05DBFDF741FFBDE8F04709F097
:1042100061BFFDF72BFF227B40F27403012AC2F23B
:10422000000326D0BDE8F04709F06CBF46F28800D5
:10423000C4F2020041684D199D60D7E740F258086A
:10424000C2F20008C6F5484AD8F80010524689194B
:104250000AF006FB06F56052BD18ADB209EB0A0084
:10426000D8F800102A460AF0FBFA012025602071D8
:10427000ABE79968B1F5FA6FD4DD00201873D1E788
:10428000F8B50C46074694E8410089693D68761AFE
:1042900018B132460AF0E4FAAD19C6F50066B1B2BB
:1042A00009B9A56964212846FFF778FF20463968D7
:1042B0004FF4006202F0D6FC02F09CFF08B100BF90
:1042C0001020F8BD30B447F2306344F61C74C2F2DB
:1042D0000104C2F2010344F620724CF63010C2F21F
:1042E000010242F21075C2F200004FF4484125600D
:1042F0001A6030BC09F040BB2DE9F00340F27407AE
:10430000C2F200070026002340F23011FB81B146C3
:10431000B046B4463346C2F2000140F69F7503E052
:10432000581C83B2AB421CD8C85CCA18FF2854780A
:104330009278F5D104F0E600E228F1D1AEB1C2EBFB
:1043400009035E4246EB0306A04514BF002606F0B3
:1043500001067EB90CF1010293B2581C83B2AB4244
:10436000E2D90020BDE8F00370479146A0469C4684
:104370000126D5E7E00600F18280C2F381024FF406
:104380001070012AF88108BF42F6E06008D042F6BA
:104390001130002A18BF0020022A08BF4FF4FA503B
:1043A000BCF1000FDED04FF6FC740CEA0408D8F123
:1043B000010238BF0022BCF1030F98BF42F0010296
:1043C000CCF38F07002A40F0878040F23014C2F20D
:1043D0000004234601257E1EAF4243F8042B06F05D
:1043E00003061DD936B286B1012E08D0022E03D0A5
:1043F0001A60022504F1080343F8042B0135013546
:10440000ACB2A74243F8042B0AD91C46043544F841
:10441000042BAEB25A606260DA601033B742F4D84F
:10442000E0459FD008F101036FEA08049BB2002227
:1044300064449C4501F8082004F0030492D924B296
:1044400074B1012C07D0022C02D05C1CCA54A3B258
:104450005C1CCA54A3B25C1CCA54A3B29C4581D94B
:104460005E1CB6B2751CADB26F1CBCB2671CCA54E0
:10447000BBB29C458A554A550A55F1D872E72307C5
:1044800014D4C2F381024FF41070012AF88108BFDE
:1044900045F6C05084D045F22260002A18BF0020A3
:1044A000022A7FF47DAF4FF47A5079E7C2F381029C
:1044B0004FF49063012AFB8108BF4BF680303FF434
:1044C0006FAF4AF64440002A18BF0020022A7FF44A
:1044D00067AF4FF4FA4063E74FF00008A2E700BF70
:1044E00038B540F26D0440F25D05C2F20004C2F23C
:1044F000000506E0287802280AD109F025FFFDF71B
:1045000099FF2378032BF8D102F074FE0028F1D034
:1045100002F070FE78B9FFF7EFFE40F27403C2F2CA
:104520000003588200B138BD052201201A74BDE88D
:104530003840FDF79BBD40F27401C2F20001042235
:1045400001200A74BDE83840FDF790BD38B54DF242
:104550003015C2F2000509F00DFD2846FDF770FE8A
:10456000696844F6D35CC1F2620CACFB01244EF2E4
:104570001003CEF20003A0094FF46D45421ECEF2A7
:10458000000540F274045A60F02100200722C2F2B4
:10459000000485F8231098601A60FFF7A1FF257CBE
:1045A0004DB100BF0120FDF761FD4FF47A7009F0B5
:1045B000D7FDFFF7E1FD40F26D0EC2F2000E0522BD
:1045C0008EF8002009F086FDE189608A00F018F875
:1045D000FFF778FE042323740120FDF747FD42F224
:1045E000107002F025FE00F02FF84FF47A7009F0F9
:1045F000B7FD0120FDF74AFD2574FFF7BDFD00BFA3
:1046000038B5054601200C46FCF736F840F25C0050
:10461000C2F200002A4601780420FCF7B3FB40F206
:10462000880CC2F2000C4EF24430C2F20000A1002D
:10463000ACF80040FCF73CF94DF24013C2F2000325
:1046400001221A6038BD00BF08B50220FCF7A0F9AE
:10465000BDE80840FCF772B810B54DF24014C2F244
:1046600000040220FDF722FD2368012B40F288039D
:10467000C2F200030AD01B884EF24430C2F200009E
:104680009900FCF715F90122226010BD19884DF23E
:104690004410C2F200008900FCF70AF902202060F1
:1046A00010BD00BF002070472DE9F00F0668C56FF0
:1046B000C46B076CC4B049F282080D96C6691895A0
:1046C0000E94056E046A09970A96C76DC6680F9521
:1046D0001A94056F046B1B971D96C76C06691E958F
:1046E0001094C56EC46A11971296076D46681395AB
:1046F000149420973496476C8669856F846B37973E
:104700003896876D866835953694456E446A259748
:104710002796876C466923952494456F446B2A97A6
:104720002C96189F0D9E2895F71B856E299441F2B3
:10473000F206846A406D3095C0F6FB763194329073
:1047400003970496099F0E9EDDF80CC0F61B029697
:104750004FF63035049E8CFB067B3F0F47EB0B1C5E
:10476000C0F2C805DDF808B08BFB0567360F46EBD5
:10477000071B0F9D0A9F1B9ECDF8B4C07F1B1A9D7F
:10478000CDF8B8B0DC444EF691744BF29A40C6EBCB
:10479000050BCDF864C0C0F6DA34C0F6BE2087FB46
:1047A00004C55FEA1C7C4CEB05168BFB0045240F0F
:1047B00044EB051C109F1D9D1E9C339606EB0C00C0
:1047C000119ECDF8ECC04EF29D69C6EB070CC4EB10
:1047D000050B1C90129D149EC0F61078C0F2635910
:1047E0008BFB0804000F40EB04178CFB0904000F3F
:1047F00040EB041B139C2F97C4EB050807EB0B0041
:10480000209D1F904BF67A5AC0F6766A88FB0A0400
:10481000000F40EB041744F202483F97CDF8F8B080
:10482000349FC5EB060BC0F2D7688BFB0804000F62
:1048300040EB041A359C3F98379DCDF800A1C4EB9E
:104840000709369F00EB0A062196C5EB070A4AF6D0
:10485000C02640F20E27C0F25927C0F6D37689FB56
:104860000604000F40EB04168AFB0704000F40EB20
:1048700004190196249F259D3898239CCDF8049116
:104880004E44C5EB070822964FF6FE374FF224063A
:10489000C4EB000CC0F68717C0F6D9468CFB064562
:1048A000240F44EB051688FB0745240F44EB05183D
:1048B000CDF81880289C069F2798299D4296001BBA
:1048C000F6192A9C269643F67E76C4EB050BC0F6B5
:1048D000857643F62F7780FB0645240F44EB0516BB
:1048E0004396C0F2E3372C988BFB07562D0F45EB10
:1048F000061B309F439DC01B05EB0B06329F319D6D
:104900002B9644F2A318C0F6B958C7EB050980FBF3
:1049100008562D0F45EB06174CF2CD380797C0F619
:10492000390889FB08562D0F45EB0619189E07EB31
:10493000090A0D9FCDF8E4A0BD190E9E099F0895A8
:10494000F5190C950F9E0A9D44F2D267C0F6EC77DC
:104950000397AF191A9E1B9D15977719169747F65F
:104960006C251D9F1E9EDDF864A0C0F29115029576
:10497000BD19109E119F1795F5190D95139E129D47
:1049800044F23607C0F65E470497AF19149D209E87
:104990000E974AF2AB08AF191C9D099747F693167C
:1049A000C0F62626C0F64F78219F0596CDF82C80BC
:1049B0001F9E0AEB0508CDF84C80DDF898A0DDF8C5
:1049C0008880F5192B9F399E1495C244BD19DDF8D6
:1049D000B8802D9E3B9FCDF880A0DDF8CCA03A9505
:1049E000C8EB0605C7EB0A08DDF80CA085FB0A67D3
:1049F000360F46EB071ACDF8F0A0029F88FB07564A
:104A00002D0F45EB06173C9DDDF8BCA03E9E3D9763
:104A1000EF19C6EB0A082D97DDF8FCA0049F88FB70
:104A200007562D0F45EB0617409EDDF80481019DCA
:104A30002F97C6EB0A0AC8EB0507DDF814808AFB3E
:104A400008562D0F45EB0618DDF82CA087FB0A56FB
:104A50002D0F45EB061A2F9F429DCDF8FCA007EBCA
:104A60000806DDF818A0CDF8F880DDF80C812E9648
:104A7000CAEB0507CBEB080ADDF8FC804FF4C67CD7
:104A800045F67914C0F2A54CC0F61C6487FB0C56A1
:104A90002D0F45EB061B8AFB04562D0F45EB061721
:104AA000CDF800B108EB0B0ADDF81CB041974DF2D0
:104AB0004E70C0F28A70C9EB0B08CDF8CCA088FB11
:104AC00000562D0F45EB061BDDF858A0089D0C9EE7
:104AD000CDF808B15F44DDF854B03B970BEB0A0901
:104AE000AF190697CDF81C900E9D099EDDF85CA0CD
:104AF000DDF83480DDF8E890AF19349E359D0A97D3
:104B00007719369D379E0F97AF19389E239D1A97B8
:104B10007719249E259D1B977719279D289E1D9701
:104B2000AF19299E2A9D1E9777192C9E309D1097AC
:104B30007719319D329E11970AEB080BAF19DDF8FA
:104B40008080139D149E129708EB090AAF19CDF8C7
:104B500060B03497CDF8D4A0339D3B9EDDF8B4907F
:104B6000DDF8B8B0AF1949F69D583897C0F6E3089C
:104B7000349DCDF80480359EDDF8E08009EB0B0A0A
:104B8000AE19CDF8DCA0C2440C9DDDF8208036962D
:104B9000CDF88CA0159EDDF858A0C5EB0808CAEB2F
:104BA00006051595DDF80CA088FB0A562D0F45EB80
:104BB000061ADDF85480CDF890A0DDF808A088FB37
:104BC0000A562D0F45EB0618179D0D9ECDF89480C3
:104BD000DDF838A0C6EB0508099DC5EB0A0ACDF83B
:104BE00020A0049D88FB056A360F46EB0A15DDF808
:104BF00014A02795DDF8208088FB0A562D0F45EB81
:104C000006180F9D1A9ECDF8A080DDF86CA0C6EBAB
:104C100005081D9EC6EB0A0ACDF810A00B9D88FB67
:104C2000056A360F46EB0A15DDF848A02995DDF830
:104C3000108088FB0C562D0F45EB0618109D119E19
:104C4000CDF8A880DDF87880C5EB080CCAEB060823
:104C50008CFB04562D0F45EB061A88FB0045240FEC
:104C600044EB051CCDF8B0A00698079D189CDDF814
:104C700028A0CDF8C0C044F6E837C0F6B177461B8F
:104C8000DDF864C0CAEB040086FB0745240F44EB43
:104C9000051A1C9DCDF8C4A041F20879C0F21F3955
:104CA000C5EB0C06DDF87CA080FB0945240F44EB26
:104CB0000518CDF8C880DDF88480C8EB0A0C86FBA7
:104CC0000745240F44EB0518CDF88480219E8CFB0A
:104CD0000945240F44EB051ADDF88880269CDDF891
:104CE000F0C0CDF80CA106EB0A004BF2153BC0F664
:104CF0004D5BDDF8E4A03D9E0E90C4EB080585FBFE
:104D00000B04000F40EB04152B9C2295CAEB040802
:104D1000C6EB0C05019E88FB0604000F40EB041651
:104D200085FB0704000F40EB04182696CDF8AC80F5
:104D3000DDF888A0DDF8BC803E983F9C409D0AEBE2
:104D4000060CC0EB0806DDF8ACA0CDF824C0601B53
:104D500086FB0945240F44EB051680FB0B45240F09
:104D600044EB0518429DCDF8F080DDF804813996BA
:104D70000AEB060CC5EB0806019D86FB0504000F37
:104D800040EB04153C98CDF870C04419DDF83CC0E8
:104D9000DDF868A01E983D95109D1F940CEB0A0845
:104DA00044193698239DDDF86CA0DDF848C0CDF895
:104DB00034801D9EDDF844801094C0EB45045644B9
:104DC000E0440E9DDDF824A0DDF870C017941F9C10
:104DD00005EB0A000CEB040A1990CDF83CA00698EC
:104DE000079DDDF828C0DDF860A0441903940D98F4
:104DF000109C8519E24404EB0800CDF808A0049546
:104E00000590179DDDF864C0DDF88CA00F98C5EB08
:104E10004C04CAEB400C249DDDF894A0CDF828C0CA
:104E20005544DDF89CC00B95289D18940CEB050AA1
:104E3000CDF820A0DDF8A8C0DDF8A4A02C9DD444B6
:104E4000DDF8C0A0CDF830C05544DDF80CC00695A3
:104E5000029D0CEB050ACDF854A0DDF814C0DDF876
:104E600010A0D444CDF858C0DDF8C8A0319DDDF8BD
:104E700028C055440795189DC5EB4C051A950D9D06
:104E8000DDF804C0C6EB050A109DC8EB05088AFBD7
:104E90000B562D0F45EB061A88FB0C562D0F45EBD4
:104EA000061C0AEB0C06CDF840A00D96DDF8E8A034
:104EB000209ECDF844C0DDF84C80DDF850C0CAEB30
:104EC0000606149643F2E85447F6AA00C0F6C864F2
:104ED000C0F21F60CCEB080888FB04C65FEA1C7CAC
:104EE0004CEB061ADDF85080CDF8E8A088FB006C8A
:104EF000360F46EB0C18CDF8BC80DDF8BCA03A9E0E
:104F0000DDF8B8C0DDF8B48056441B96CCEB080839
:104F100088FB046C360F46EB0C1ACDF8B4A0DDF814
:104F2000CCC03B9EDDF8B480C6EB0C0A8AFB006C5B
:104F3000360F46EB0C1A1A9ECDF8B8A008EB0A0CF7
:104F4000DDF86CA0CDF878C0C6EB4A061D96DDF8FA
:104F50002880259EC8EB4C0ACDF828A0DDF8A0C01B
:104F6000DDF89CA0DDF89080CCEB0A0CCDF880C079
:104F7000C6EB080888FB076A360F46EB0A1CDDF80B
:104F8000A8A0CDF848C0DDF88080DDF8A4C088FB7B
:104F90000967360F46EB0718309F2C9ECDF84C80E2
:104FA000CAEB0C09C7EB0608DDF804A089FB0B6708
:104FB000360F46EB0719DDF858C0DDF854B0CDF8D0
:104FC000509088FB0A67360F46EB0719039EDDF801
:104FD00008A044F63375C0F65035CCEB0B08CAEB8D
:104FE000060B88FB05AC5FEA1A7A4AEB0C17DDF872
:104FF00014C030978BFB0467360F46EB071ACDF8C9
:105000008CA0DDF810A00B9E089FCCEB0A08DDF801
:105010008CC0C7EB060B88FB0067360F46EB071A00
:105020008BFB0467360F46EB071BCDF890A0CAEB4D
:105030000C060C9FDDF818A0CDF894B0CAEB070859
:1050400086FB057C3F0F47EB0C1BDDF840A088FB7F
:105050000067360F46EB071CCDF8CCB0319EDDF86B
:10506000C8B0CDF89CC0DDF844C0CBEB0608CCEB53
:105070000A0B88FB047C3F0F47EB0C1A8BFB006785
:10508000360F46EB071BCDF8A0A0DDF81CC00D9F26
:10509000CDF8A4B0CBEB0A08C7EB0C0686FB057C69
:1050A0003F0F47EB0C1A88FB0567360F46EB071BD3
:1050B000DDF898C0439FCDF8C4A0CDF8C8B0DDF8A6
:1050C00088A0DDF884B0CCEB0A08C7EB0B0686FBA2
:1050D000047C3F0F47EB0C1A88FB0067360F46EB4A
:1050E000071B0E9E099FDDF84C80CDF884A0CDF8FB
:1050F00088B0C7EB060CD3448CFB0567360F46EB34
:10510000071A149FCDF808A0DDF848A0CDF824B008
:10511000C8EB0A06DDF8ACB0C9EB070886FB047CD7
:105120003F0F47EB0C1ADDF8E4C0CDF898A0CCEBAC
:105130000B0A88FB0067360F46EB071BDDF8F08093
:105140003D9FCDF8A8B0C7EB080B8AFB046C360F67
:1051500046EB0C188BFB0046240F44EB061A1D9EF1
:105160000A98099CCDF8AC80C6EB40070E971998B9
:105170000E9ECDF8B0A008EB0A0CC0EB4404DDF89D
:105180003C80CDF840C0C6EB44071997C8EB4C00F3
:10519000069FDDF830C00A9EDDF820A0DDF82CB0B7
:1051A0000CEB0708199FCDF80480C6EB4006C7EB4F
:1051B0004607D344DDF848C0DDF84CA0DDF8508048
:1051C0001197019FE2445F4408EB090C0397DDF857
:1051D000DC90349FCDF810A0CDF814C0E244DDF887
:1051E000E080DDF8D4C0C8EB0908CCEB070988FBE8
:1051F000057C3F0F47EB0C1889FB057C3F0F47EB05
:105200000C19119FDDF894C0C6EB4806DDF89C80B0
:10521000C7EB490712970CEB0809039FDDF80880DC
:10522000DDF87CC0CDF82090C7EB4A07C4EB4804FA
:105230000B970A942A9F269CE419129F0F94C7EBA0
:1052400046041C9F1394CCEB070989FB057C3F0F98
:1052500047EB0C18C0EB480014900B9F089CDDF83E
:105260005090DDF8B8C0DDF8BC80C7EB44000C906E
:105270000A9F13980F9CC0EB47000C9F1F90CAEB2E
:105280004404C7EB44001F9FDDF8E8A01C90C6EB68
:105290004906DDF8B490C7EB46002090C8EB0A0839
:1052A000CCEB090A88FB057C3F0F47EB0C198AFB06
:1052B0000507000F40EB07181B9F1E98DDF8A4C0E0
:1052C000DDF8A0A0C7EB4909C0EB48080D9F07987F
:1052D000C71920980297E244C0EB4907C6EB48087B
:1052E0000498019EDDF814C00797C6EB0B09CCEBC0
:1052F000000789FB0506000F40EB061B87FB050630
:10530000000F40EB06171C9ECDF818A0C6EB4B0013
:10531000DDF8B0A0229ECDF834800490DDF8AC809A
:105320002198DDF824B0C4EB4709C6EB000CCAEBAA
:1053300008078CFB0506000F40EB0614DDF818800B
:1053400087FB0506000F40EB0617109E0298CBEB7B
:105350004404C6EB470BC0EB480601960498DDF801
:1053600034A0DDF89480DDF89CC0C0EB49060798B6
:105370000596C0EB4A06CCEB0800DDF8A8A0DDF8E6
:1053800098C00996CAEB0C0680FB05AC5FEA1A7A56
:105390004AEB0C1086FB05A85FEA1A7A4AEB08155F
:1053A000DDF83C80089EDDF828A0C8EB4505C6EB7B
:1053B000400C0895CAEB4400149E249D239C0F903A
:1053C00064193198059DDDF81880C6EB4B0B019EE2
:1053D000C6EB4006C5EB4C000A90DDF83CC03298A5
:1053E000099DC8EB4008C5EB4C050D98DDF820C0C1
:1053F0008F00C9EB4C09C0EB4B0BDDF858C015987A
:1054000003EB070A6044CAF8E0013398C4EB400C90
:105410000A98C0EB49093098D71942F82100369A0A
:105420000398CAF8C021179ACAF8A001CAF88021C7
:105430000298189ACAF86001CAF84021CAF8E040F8
:105440000B981A9A1D9CCAF82001CAF800210C98E2
:10545000C7F800C10E9ACAF8C040019CCAF8A00063
:10546000CAF88020CAF860401998C7F880601C9A72
:10547000049CC6EB4808059EC7F88081CAF8400026
:10548000CAF820203C64C7F8C0600A98139C1F9E8D
:10549000119AC7F84001C7F8C091209843F821201D
:1054A00012993C66C7F8A060079C099E3962C5EB5B
:1054B0004B0BC7F8E000C7F82041C7F86061C7F898
:1054C000A051C7F8E0B144B0BDE8F00F704700BF8D
:1054D0002DE9F04FC3B03F923E9040913B93002A9C
:1054E00000F0FC824EF6C054002500F58056C0F650
:1054F00000043D9541963C943D9FDDF8F8B04199FC
:10550000DDF800A10868FD0207EBC7020BEB0504FC
:1055100052023B9D38940AEB02032C333690002D47
:1055200000F0D2820BEB02084EF6C05008F5805610
:10553000C0F600000C360027369D3590379639931B
:105540003A9705F00104389E4FEA442B06EB0B070F
:105550003A46A01C2797389F43026908FB183998E0
:10556000FFF7A2F8369A3699551E05F00E0321F082
:10557000010143F00105002C40F0B6824FF4C064F5
:1055800007F500730E94359F18695A6919904FEA10
:10559000850807EB0809DC68D9F818001A920F9003
:1055A0009A69D9F8100011940D9210901E6857F85E
:1055B0002550D9F838C05F68D9F82840D9F80820B4
:1055C000CDF8CC80D9F820A086FB05E80F989D681F
:1055D000C7FB0CE8D9F83060DB69C5FB06E81A9F09
:1055E000119D199EC5FB04E8109DC6FB0AE80D9CA1
:1055F000C7FB00E8C4FB05E8C3FB02E8389A0E9B32
:10560000CEF1000CD5183495BCF1000F00F0698282
:105610006FEA0808279BDDF8D4909868279A279BA3
:1056200059F82170379EDDF8E0A0279C25968D0063
:1056300009EB050ED1681A69DEF820300A92279A24
:105640000D935369279A09939369279A0893D3690D
:10565000279A5AF80B60C6FB07C84EF6C05720328F
:10566000C0F60007D4F804B0DEF81890DEF8384031
:10567000DEF810A0CBFB04C80C900B91DEF83000D4
:10568000DEF828100793DEF80830289235970D9A37
:105690000C9F099CC7FB00C8089E0B98079FC0FB86
:1056A00001C80A99C1FB02C8C4FB09C8C6FB0AC8E5
:1056B000C7FB03C85FEA1C4646EB0846DDF8CC8012
:1056C000DDF894E0359C4EF87C6BC8F10009DFF8FA
:1056D000448333993798199408F130046718DDF83A
:1056E000CCC0339ECDF894E0DDF8CCE02690C5F137
:1056F000000B08F138002D9708F12807B91908EBBD
:105700000C0ACDF8A4B0DDF8CCC0339E289BCDF8B0
:10571000A89000EB0E0BDDF8CCE0CDF8ACA0203863
:1057200008F12009203CCDF8B0B009EB0C0A00EBE1
:105730000E0BA419349A1A932E91CDF8BCA0CDF873
:10574000C0B031943398203F391802F12002002371
:10575000329114E1C9431891AD48DDF86890DDF845
:105760009CA0DDF8A080CAEB090100F110074144BC
:1057700000EB050A07EB0508183F00F108047F1944
:1057800004EB05090E975AF8037051F804AC0F9713
:1057900059F8037000F1180B0BEB050C109758F833
:1057A0000370CDF848C01197129FDDF864C0FF5810
:1057B00000F1200E283428300EEB050B139700EB78
:1057C000050E0E9FCDF850B060190D90DDF834B085
:1057D000FF58DDF85080299C2A980D976444604456
:1057E0000F9F58F803C05EF803805BF803E0DDF814
:1057F00060B0CAFB076BCDF860B0109FDDF860A009
:10580000B14651F8086CC6FB079A51F80C6C119F11
:10581000C6FB079A51F8106C139FC6FB079A51F804
:10582000147C51F8206CCB46C7FB0CBA51F8187C9D
:10583000C7FB08BA51F81C7CC7FB0EBADDF898E02C
:105840000D9FD946C6FB079A5FEA194C4CEB0A4CF0
:105850004EF804CF52F8046C52F8087C1B9652F8AC
:105860000C6C1C971D9652F8107C52F8146C1E9705
:105870001F9652F8187C52F81C6C2097229652F80A
:10588000207C51F81C6C51F8208CCDF898E02497BE
:105890000F96E76B51F8186C88FB07ECE76C0D96D8
:1058A000109751F8146C676D0E96119751F8106CA3
:1058B000E76DD4F844B01296139751F80C6C676EEC
:1058C000149651F8086C1597169651F8046C416DB2
:1058D000E76E0391C16C17972191416CC76E2391BC
:1058E0001A991896D4F874A0466EC46DD0F87490C6
:1058F000C06B203102901A910F981099C0FB0BECED
:105900000D98C0FB01EC0E981199C0FB01EC1298A8
:105910001399C0FB01EC14981599C0FB01EC169883
:105920001799C0FB01EC18981B99C0FB0AEC1C9856
:10593000C1FB09EC1D99C0FB07EC1F9FC1FB06ECE6
:1059400003981E9E2099C6FB04EC229EC7FB00EC28
:10595000219C239FC1FB04ECC6FB07EC259E2498E9
:105960000299C0FB01EC80335FEA1E4747EB0C470E
:1059700046F804792032B3F5F06F25964CD0DDF867
:10598000AC8052F8207C58F8034087FB04012F9C20
:10599000DDF8B0B0E4582D9E0194309CDDF8B8904D
:1059A000E4585BF803A00694319C56F80380E45851
:1059B00052F8147C0594329C59F80360E45852F86C
:1059C0001CEC049452F818CC069C52F80CBCCEFB8C
:1059D0000A01CCFB0801C7FB060152F8106C019FBD
:1059E000C6FB070152F8086C059FCBFB0401C6FB00
:1059F0000701199F049E52F8044CC4FB060180372E
:105A000046421997002E7FF4A5AE48421890A3E6AF
:105A100048EE000840EE0008349F3C98339ED7F8CB
:105A2000F421D7F8F841D7F8F051D7F8FC311992A2
:105A300081191A94D1F81028369C0E950D930F9267
:105A4000DDF8E8A0D7F8EC61D1F80058D1F838E8D3
:105A5000D1F8308807F5F07C9CE8011280FB05B393
:105A6000D1F82878D1F82058D1F81808D1F80818BA
:105A70005A4604F1010BC9FB0E230E9CCCFB0823F4
:105A8000C6FB07231A9E0F9FC4FB0523199DC5FB68
:105A900000230D98C6FB0723C0FB0123160C46EB21
:105AA0000346379A75420AF1010ECDF8E8E0156415
:105AB000399E3B9F803280360BF00F05BE453695F0
:105AC000379239967FF43DADDDF8F4A03F9C0AF1A2
:105AD000010AA245CDF8F4A07FF40EAD43B0BDE8B5
